:100000000C9400040C94570F0C94880F0C94B90FA7
:100010000C94EA0F0C941B100C944C100C947D1053
:100020000C94AE100C942C040C942C040C942C0402
:100030000C942C040C942C040C942C040C942C0480
:100040000C942C040C942C040C942C040C942C0470
:100050000C942C040C942C040C942C040C9413116C
:100060000C942C040C943B130C9467140C942C04E7
:100070000C942C040C942C040C942C040C942C0440
:100080000C942C040C942C040C942C040C942C0430
:100090000C9474130C94A6140C942C040C942C043F
:1000A0000C942C040C942C040C942C040C942C0410
:1000B0000C942C040C942C040C942C040C942C0400
:1000C0000C942C040C942C040C942C040C94AD1360
:1000D0000C94E5140C942C040C94E6130C94241545
:1000E0000C942C0400002100240027002A002D007D
:1000F0003000330001010000040107010A01000083
:100100002200250028002B002E00310034000201BF
:100110000000050108010B0100002000230026005B
:1001200029002C002F00320000010000030106010D
:10013000090105050505070508080808020202026D
:100140000A0A080804040404010101010101010173
:100150000303030303030303040707070C0C0C0C3E
:100160000C0C0C0C02020202060606060606060627
:100170000B0B0B0B0B0B0B0B0102102020080810B4
:100180002040102040800201020108040201010207
:1001900004081020408080402010080402018004E0
:1001A000020180402010080402010804020101023B
:1001B0000408102040800102040810204080000044
:1001C000090A02080B0C0D070603040100000000D9
:1001D000000000000000000000000000000000001F
:1001E0000000000000000000000011100F000000DF
:1001F00000000000000000000000000000000000FF
:100200000000000000000000003E5B4F5B3E3E6BC4
:100210004F6B3E1C3E7C3E1C183C7E3C181C577DA0
:10022000571C1C5E7F5E1C00183C1800FFE7C3E7EC
:10023000FF0018241800FFE7DBE7FF30483A060EFE
:100240002629792926407F050507407F05253F5A45
:100250003CE73C5A7F3E1C1C08081C1C3E7F1422B5
:100260007F22145F5F005F5F06097F017F00668960
:10027000956A606060606094A2FFA29408047E04A6
:100280000810207E201008082A1C08081C2A0808CC
:100290001E101010100C1E0C1E0C30383E3830068C
:1002A0000E3E0E06000000000000005F0000000788
:1002B000000700147F147F14242A7F2A12231308B6
:1002C000646236495620500008070300001C224192
:1002D000000041221C002A1C7F1C2A08083E080836
:1002E00000807030000808080808000060600020E6
:1002F000100804023E5149453E00427F40007249C9
:100300004949462141494D331814127F102745456C
:1003100045393C4A49493141211109073649494982
:1003200036464949291E00001400000040340000F0
:100330000008142241141414141400412214080259
:10034000015909063E415D594E7C1211127C7F49CC
:100350004949363E414141227F4141413E7F494921
:1003600049417F090909013E414151737F0808084D
:100370007F00417F41002040413F017F081422411E
:100380007F404040407F021C027F7F0408107F3E78
:100390004141413E7F090909063E4151215E7F09E5
:1003A000192946264949493203017F01033F40404C
:1003B000403F1F2040201F3F4038403F6314081437
:1003C0006303047804036159494D43007F4141416F
:1003D0000204081020004141417F04020102044050
:1003E00040404040000307080020545478407F28D4
:1003F0004444383844444428384444287F385454CA
:10040000541800087E090218A4A49C787F080404EC
:100410007800447D40002040403D007F102844008B
:1004200000417F40007C047804787C08040478381C
:1004300044444438FC1824241818242418FC7C084C
:10044000040408485454542404043F44243C4040C9
:10045000207C1C2040201C3C4030403C442810287C
:10046000444C9090907C4464544C440008364100C5
:100470000000770000004136080002010204023C3F
:100480002623263C1EA1A161123A4040207A38540E
:100490005455592155557941215454784121555489
:1004A000784020545579400C1E52721239555555DA
:1004B00059395454545939555454580000457C41C5
:1004C0000002457D420001457C40F0292429F0F0DE
:1004D000282528F07C545545002054547C547C0A2F
:1004E000097F4932494949323248484832324A48FC
:1004F00048303A4141217A3A42402078009DA0A0FC
:100500007D39444444393D4040403D3C24FF24244F
:10051000487E4943662B2FFC2F2BFF0929F620C06C
:10052000887E090320545479410000447D413048BD
:10053000484A32384040227A007A0A0A727D0D1900
:10054000317D2629292F28262929292630484D4062
:1005500020380808080808080808382F10C8ACBA5E
:100560002F102834FA00007B000008142A142222DD
:10057000142A1408AA005500AAAA55AA55AA0000D0
:1005800000FF00101010FF00141414FF001010FFE3
:1005900000FF1010F010F0141414FC001414F700F5
:1005A000FF0000FF00FF1414F404FC141417101FC4
:1005B00010101F101F1414141F00101010F0000052
:1005C00000001F101010101F10101010F01000006D
:1005D00000FF101010101010101010FF100000007D
:1005E000FF140000FF00FF00001F10170000FC04B4
:1005F000F414141710171414F404F40000FF00F797
:1006000014141414141414F700F7141414171410F9
:10061000101F101F141414F4141010F010F0000028
:100620001F101F0000001F14000000FC140000F049
:1006300010F01010FF10FF141414FF141010101FEE
:1006400000000000F010FFFFFFFFFFF0F0F0F0F0FF
:10065000FFFFFF0000000000FFFF0F0F0F0F0F381C
:10066000444438447C2A2A3E147E02020606027E56
:10067000027E0263554941633844443C04407E2075
:100680001E2006027E020299A5E7A5991C2A492A86
:100690001C4C7201724C304A4D4D30304878483015
:1006A000BC625A463D3E494949007E0101017E2A0D
:1006B0002A2A2A2A44445F444440514A4440404440
:1006C0004A51400000FF0103E080FF000008086B72
:1006D0006B083612362436060F090F06000018186C
:1006E0000000001010003040FF0101001F01011E3A
:1006F00000191D1712003C3C3C3C00000000000F9C
:100700000180961180FFB103012C2DB203012C2D25
:10071000B306012C2D012C2DB40107C003A20284C5
:10072000C101C5C2020A00C3028A2AC4028AEEC5F8
:10073000010E20003601C83A0105022A0400020019
:10074000812B04000100A0022A040000007F2B047A
:100750000000009F04E010021C07123732292D29E7
:10076000252B3900010310E110031D07062E2C294B
:100770002D2E2E373F0000021013800A29806412AC
:100780000180321180FF3A81050AB1830006030A15
:10079000360108B6021502B40100C08202700AC117
:1007A0000105C2020102C5823C380AFC021115E0B3
:1007B0001009160920211B131917151E2B040502F9
:1007C0000EE1900B14081E221D181E1B1A242B0666
:1007D00006020F0A2A04000200812B040002008195
:1007E00013800A2980FF7C3C3E5E2B3D3F2F5B5DE2
:1007F0003B2C2A225C002E04A10C8E16E1239A0CBD
:1008000011241FBECFEFD1E2DEBFCDBF00E00CBF91
:1008100014E0A0E0B2E0E8ECF7E700E00BBF02C0B4
:1008200007900D92A836B107D9F719E0A8E6B4E011
:1008300001C01D92A93DB107E1F717E0CEEFD7E067
:1008400004C02297FE010E94D33BC63FD107C9F7DF
:100850000E94AC170C94F63A0C94000088E694E0E1
:1008600066E047E028E00E94C023109297041092AF
:1008700098041092990410929A0410929B0410927A
:100880009C0410929D0410929E0410929F0410925A
:10089000A0041092A1041092A2041092A30410923A
:1008A000A4041092A5041092A6040E945B11609308
:1008B000AA047093AB048093AC049093AD040895A4
:1008C0002F923F924F925F926F927F928F929F9260
:1008D000AF92BF92CF92DF92EF92FF920F931F934E
:1008E000DF93CF9300D000D0CDB7DEB79C838B834E
:1008F000181619060CF07EC07E836D8321E030E06F
:100900003A8329836FC0ED81FE81408151816281EC
:1009100073818091B6040E94CB0A1B012C01809147
:10092000B7049091B804A0E0B0E0281A390A4A0A46
:100930005B0AED81FE8144815581668177818091DA
:10094000B6040E947D0A3B014C018091B90490914C
:10095000BA04A0E0B0E0681A790A8A0A9B0AED811D
:10096000FE8140855185628573858091B6040E9421
:10097000CB0A5B016C018091B7049091B804A0E0B0
:10098000B0E0A81AB90ACA0ADB0AED81FE814485E3
:100990005585668577858091B6040E947D0A7B0126
:1009A0008C018091B9049091BA04A0E0B0E0E81AFB
:1009B000F90A0A0B1B0B88E694E0B101A30195012B
:1009C0008701EFE1EE2EE8EFFE2E0E94D71C298171
:1009D0003A812F5F3F4F3A8329838D819E8108960C
:1009E0009E838D83E981FA812B813C81E217F30795
:1009F0000CF489CF26960FB6F894DEBF0FBECDBF9C
:100A0000CF91DF911F910F91FF90EF90DF90CF90EA
:100A1000BF90AF909F908F907F906F905F904F901E
:100A20003F902F900895EF92FF920F931F930E9493
:100A30005B117B018C018091B2049091B304A09171
:100A4000B404B091B504E816F9060A071B0740F490
:100A5000E092B204F092B3040093B4041093B5048E
:100A60008091B2049091B304A091B404B091B50404
:100A70000097A105B10589F08091B2049091B3046B
:100A8000A091B404B091B5048C509E4FAF4FBF4FAE
:100A90008E159F05A007B10750F40E949509E092BA
:100AA000B204F092B3040093B4041093B5041F9100
:100AB0000F91FF90EF900895EF92FF920F931F9385
:100AC0000E945B117B018C018091AE049091AF0478
:100AD000A091B004B091B104E816F9060A071B070B
:100AE00040F4E092AE04F092AF040093B00410938F
:100AF000B1048091AE049091AF04A091B004B09184
:100B0000B1040097A105B10589F08091AE049091E0
:100B1000AF04A091B004B091B1048C509E4FAF4F80
:100B2000BF4F8E159F05A007B10750F40E94890999
:100B3000E092AE04F092AF040093B0041093B104BD
:100B40001F910F91FF90EF900895EF92FF920F93F6
:100B50001F93CF93DF93EC017B0180E00E94DF10B5
:100B600020916103309162038C01021B130B81E021
:100B70000E94DF102091630330916403821B930B6A
:100B80009C01C8010496099710F400E010E0C90127
:100B90000496099710F420E030E0C80160E870E0A6
:100BA0000E94813B79836883C90160E870E00E94FC
:100BB000813BF701718360830E945B117B018C0193
:100BC0008091AA049091AB04A091AC04B091AD04C3
:100BD000E816F9060A071B0740F4E092AA04F0920F
:100BE000AB040093AC041093AD0480916503909125
:100BF0006603A0916703B09168032091AA04309125
:100C0000AB044091AC045091AD04820F931FA41F1C
:100C1000B51F8E159F05A007B10710F080E019C021
:100C2000E092AA04F092AB040093AC041093AD04DC
:100C300084E00E940A1320E0892B09F421E08091CE
:100C4000A904882321F080E0222309F481E0209385
:100C5000A904DF91CF911F910F91FF90EF9008951C
:100C600084E060E00E94241284E061E00E94D712D8
:100C700081E00E94DF10909362038093610380E023
:100C80000E94DF109093640380936303089583E8C8
:100C900097E065E00E944526882309F4FFCF089578
:100CA0000F931F9308E614E0C80161E00E949223AD
:100CB000C80160E00E943322C80160E070E040E0BB
:100CC00050E00E94A61FC80160E070E00E94B21FC1
:100CD000C80161E00E94AC1FC8016FE170E00E9492
:100CE000A0211F910F910895EF92FF920F931F93F0
:100CF000CF93DF93EC018091A7049091A8048C1707
:100D00009D0789F1D093A804C093A70488E694E0D6
:100D100060E070E044E950E020E830E00CE010E0F2
:100D2000F0EEEF2EF7E0FF2E0E94BB2188E694E064
:100D300061E00E94AC1F88E694E06FE178EF0E94CA
:100D4000B21F88E694E060E070E046E950E00E945F
:100D5000A61F88E694E061E00E94AC1F88E694E05C
:100D6000BE010E940C19DF91CF911F910F91FF904E
:100D7000EF90089580E092E00E9474060895AB0120
:100D8000BC0187E097E02AE030E00E9496180895C1
:100D9000BC0187E097E00E94091908952F923F92C5
:100DA0004F925F926F927F928F929F92AF92BF927B
:100DB000CF92DF92EF92FF920F931F93DF93CF9327
:100DC000CDB7DEB72B970FB6F894DEBF0FBECDBF01
:100DD00040900B0450900C045694479460900D047E
:100DE00070900E04769467942DB62EB72B87809161
:100DF0009404882311F4332404C0109294043324FF
:100E000033941A8219821C821B829091050480916E
:100E1000B604981791F00E946A0B8091BB049091E0
:100E2000BC046091BD047091BE04661977098419F1
:100E300095090E94BD0933243394CE010196BE0169
:100E40006D5F7F4F0E94A505D82E89819A81892BDD
:100E500029F48B819C81892B09F457C0E090B70459
:100E6000F090B8040091B9041091BA04CE0105962F
:100E7000BE01695F7F4F0E94A109882309F445C024
:100E80008D819E818A30910548F4E090B704F090FE
:100E9000B80480EE9FEFE80EF91E0DC0863791056D
:100EA00010F420E009C0E090B704F090B80420E20C
:100EB00030E0E20EF31E21E08F8198858A309105A3
:100EC00038F40091B9041091BA04005210400CC0DB
:100ED0008637910538F00091B9041091BA04005E8C
:100EE0001F4F02C0222339F0C701B8010E94BD097B
:100EF000332433940AC00E94F0096B817C8189817C
:100F00009A810E94720C0E945C0A8DB79EB701966E
:100F10009A878987DD2009F4EDC081E092E00E9484
:100F2000C8066091C3047091C4048091C504909177
:100F3000C6040E94BF0681E192E00E94C80660914B
:100F4000BF047091C0048091C1049091C2040E94BA
:100F5000BF0683E192E00E94C8060091BF04B090F2
:100F6000C0049090C1048090C2041091C304F0901A
:100F7000C404D090C504C090C6048091950490919B
:100F80009604892BD9F485E192E00E94C80610935B
:100F90009B04F0929C04D0929D04C0929E04009306
:100FA0009704B09298049092990480929A0421E058
:100FB00030E030939604209395049CC082E292E046
:100FC0000E94C806E12E1093A304F092A404D092CC
:100FD000A504C092A604A02E00939F04B092A00482
:100FE0009092A1048092A20410929604109295040B
:100FF00020919704309198044091990450919A045B
:1010000060919B0470919C0480919D0490919E043A
:10101000C92CD82C0091A5041091A6040E94930D10
:101020008C013FEF8F3F930719F0893C91052CF01D
:101030008DE292E00E94740656C0181619060CF054
:101040004EC0DDB6CEB6A3E0880F991FAA95E1F792
:101050002DB73EB7281B390B0FB6F8943EBF0FBE15
:101060002DBF8DB79EB70196F82EE92EFC0180E0CA
:1010700090E01082118212821382148215821682ED
:101080001782019638968017910799F78F2D9E2D1C
:10109000B8010E94A80C97FD13C081E392E00E9462
:1010A000C8060E942D0AC8016F2D7E2D0E94600483
:1010B0000E945C0A87E097E064E472E00E940C19E9
:1010C0008D2D9C2D9C010FB6F8943EBF0FBE2DBFF9
:1010D00087E097E064E472E00E940C190DC08CE593
:1010E00092E00E94C80668EB7BE080E090E00E94FE
:1010F00069111FC000E010E0332071F00E942D0A3A
:101100000E945C0A0115110529F0C80169857A85DC
:101110000E9460040E94BA06809195049091960402
:10112000892B19F487E692E002C08DE692E00E94D6
:101130007406822D9B859C010FB6F8943EBF0FBEAE
:101140002DBF52CECF92DF92EF92FF920F931F935B
:10115000CF93DF9387E097E040E855E260E070E0EE
:101160000E94631587E097E061E772E00E940C1926
:1011700087E097E00E9443160E9450060E944706AF
:101180000E9430060E946409C090B604CC2DD0E0C5
:1011900064E0CC0FDD1F6A95E1F755EAC52E53E0F8
:1011A000D52ECC0EDD1EFE01E755FC4FD6011C9658
:1011B0006D917D918D919C911F972081318142810C
:1011C0005381620F731F841F951F22E030E040E0BF
:1011D00050E00E94B63B79018A01C355DC4F68811B
:1011E00079818A819B81F6012081318142815381FD
:1011F000620F731F841F951F22E030E040E050E033
:101200000E94B63BC801B7010E940F0B80910B04EE
:1012100090910C04969587954091B7045091B8042D
:1012200060910D0470910E04769567952091B90434
:101230003091BA04620F731F840F951F0E94220C15
:1012400081E08093940482E060E00E94241282E0B6
:1012500061E00E94D71283E060E00E94241283E0E4
:1012600061E00E94D71281E06CE575E042E050E059
:101270000E94DB0E80E063E175E042E050E00E94F6
:10128000DB0E87E097E06DE772E00E9409196DB709
:101290007EB78091D5099091D609009721F480916D
:1012A0005D0390915E03681B790B87E097E04AE04D
:1012B00050E00E94EA18DF91CF911F910F91FF90AB
:1012C000EF90DF90CF9008951092BF041092C00469
:1012D0001092C1041092C2041092C3041092C4046C
:1012E0001092C5041092C6041092BC041092BB0464
:1012F0001092BE041092BD041092B8041092B7046C
:101300001092BA041092B904809105048093B60437
:10131000089580910504853028F4809105048F5F3D
:101320008093050480910504089580910504882325
:1013300029F0809105048150809305048091050473
:101340000895FC01DB018091BB049091BC042091C5
:10135000B7043091B804821B930B918380838091F2
:10136000BD049091BE042091B9043091BA04821B4F
:10137000930B8D939C9381E0089597FF03C0E0E069
:10138000F0E010C0E091B604F0E0EE0FFF1FE75967
:10139000FC4F0190F081E02DE058F0408E179F0740
:1013A00008F4FC01F093B804E093B70477FF03C09E
:1013B00060E070E010C0E091B604F0E0EE0FFF1FB7
:1013C000EB58FC4F0190F081E02DE05AF040E61719
:1013D000F70708F4BF017093BA046093B904089545
:1013E000AF92BF92CF92DF92EF92FF920F931F9333
:1013F0004091BB045091BC04425050402091BD0428
:101400003091BE04225030408091B60466E0869F41
:10141000C00111246091B7047091B8048A01061BC1
:10142000170B6091B9047091BA047901E61AF70AB2
:101430008F579C4F68E674E0F5E0CF2ED12CE5E0A5
:10144000AE2EB12C0E9428361F910F91FF90EF9085
:10145000DF90CF90BF90AF900895AF92BF92CF92A0
:10146000DF92EF92FF920F931F938091B60426E0D4
:10147000829FC00111244091B7045091B80420917B
:10148000B9043091BA048F579C4F68E674E000E0CD
:1014900010E0EE24FF24B0E8CB2ED12CA0EAAA2E37
:1014A000B12C0E9428361F910F91FF90EF90DF9092
:1014B000CF90BF90AF9008950F931F936091BB049E
:1014C0007091BC048091B7049091B804681B790BAB
:1014D0004091BD045091BE048091B9049091BA042A
:1014E000481B590B88E694E022E030E000E018EF5A
:1014F0000E94A31C1F910F910895AF92BF92CF92AB
:10150000DF92EF92FF920F931F935A016B01A82F66
:10151000BB27A7FDB09500D00F9265EA73E0FD01EF
:1015200084E0EE0FFF1F8A95E1F7E60FF71F208199
:10153000318142815381AA0FBB1FCD01019613E077
:10154000880F991F1A95E1F7680F791FFB01E0805A
:10155000F18002811381AB58BC4F8D919C91A0E02A
:10156000B0E0EDB7FEB781839283A383B483C60155
:10157000B501AA24BB2465010E94C1190F900F90E8
:101580000F900F901F910F91FF90EF90DF90CF90F1
:10159000BF90AF900895AF92BF92CF92DF92EF923B
:1015A000FF920F931F935A016B01A82FBB27A7FD32
:1015B000B09500D00F92FD0104E0EE0FFF1F0A95D9
:1015C000E1F785EA93E0E80FF91F24813581468130
:1015D0005781E484F58406851785AA0FBB1FA75998
:1015E000BC4F8D919C91A0E0B0E0EDB7FEB7818338
:1015F0009283A383B483C601B501AA24BB246501E9
:101600000E94C1190F900F900F900F901F910F9192
:10161000FF90EF90DF90CF90BF90AF900895AF9282
:10162000BF92CF92DF92EF92FF920F931F937B01B5
:101630008C0159016A018091B604B801A7010E948A
:10164000CB0A7093B8046093B7048091B604B601D6
:10165000A5010E947D0A2091B7043091B80437FF9C
:1016600003C0E0E0F0E010C0E091B604F0E0EE0F5F
:10167000FF1FE759FC4F0190F081E02DE058F0404A
:101680002E173F0708F4F901F093B804E093B7046C
:1016900077FF03C060E070E010C0E091B604F0E0B6
:1016A000EE0FFF1FEB58FC4F0190F081E02DE05A48
:1016B000F040E617F70708F4BF017093BA0460938F
:1016C000B9041F910F91FF90EF90DF90CF90BF90E2
:1016D000AF900895809105048093B6044091BF04B3
:1016E0005091C0046091C1047091C2040E94CB0A61
:1016F0007093BC046093BB044091C3045091C40434
:101700006091C5047091C6048091B6040E947D0A60
:101710007093BE046093BD048091B6040895AF92A7
:10172000BF92CF92DF92EF92FF920F931F93A82F59
:10173000BB27A7FDB09500D00F92CD01880F991F50
:10174000FC01EB58FC4FE080F18000E010E0E5EA9E
:10175000F3E034E0AA0FBB1F3A95E1F7AE0FBF1FCD
:10176000AD90BD90CD90DC90019623E0880F991F3D
:101770002A95E1F7E80FF91F80819181A281B38159
:10178000EDB7FEB781839283A383B483CB01BA0103
:1017900020E030E040E050E00E94C1190F900F902F
:1017A0000F900F901F910F91FF90EF90DF90CF90CF
:1017B000BF90AF900895AF92BF92CF92DF92EF9219
:1017C000FF920F931F93992787FD909500D00F925A
:1017D000FC01EE0FFF1FE759FC4FE080F18000E0B5
:1017E00010E0B4E0880F991FBA95E1F7E5EAF3E05D
:1017F000DF01A80FB91F1496AD90BD90CD90DC907D
:101800001797E80FF91F84859585A685B785EDB7ED
:10181000FEB781839283A383B483CB01BA0120E016
:1018200030E040E050E00E94C1190F900F900F90FF
:101830000F901F910F91FF90EF90DF90CF90BF908E
:10184000AF90089597FF03C080E090E00EC0E09154
:10185000B604F0E0EE0FFF1FE759FC4F0190F08156
:10186000E02DE817F90708F4CF019093BC048093AA
:10187000BB0477FF03C060E070E00EC0E091B604E7
:10188000F0E0EE0FFF1FEB58FC4F0190F081E02DD0
:10189000E617F70708F4BF017093BE046093BD0418
:1018A000AC0160E070E08091B6040E94DB0B6093B5
:1018B000BF047093C0048093C1049093C20440910C
:1018C000BD045091BE0460E070E08091B6040E94B7
:1018D0008F0B6093C3047093C4048093C5049093EA
:1018E000C60408954091BB045091BC042091BD04EE
:1018F0003091BE04260F371F840F951FB9010E9437
:10190000220C089508958130910551F46F5F7F4F47
:1019100081F487EC94E068EC72E00E940A1B089561
:10192000892B39F46F5F7F4F21F487EC94E00E949C
:101930009B1B089580E090E06FEF7FEF0E94830C87
:10194000089581E090E06FEF7FEF0E94830C08958F
:101950002F923F924F925F926F927F928F929F92BF
:10196000AF92BF92CF92DF92EF92FF920F931F93AD
:10197000DF93CF93CDB7DEB76E970FB6F894DEBF87
:101980000FBECDBF9E8F8D8F87E097E061EE72E036
:101990000E940C190E945B117B018C018824992400
:1019A0003E010894611C711C38E0A32EB12CAC0ED2
:1019B000BD1E2FE0222E312C2C0E3D1E96E1492E0D
:1019C000512C4C0E5D1E0E945B116E197F09800B1D
:1019D000910B695E73408040904048F087E097E04B
:1019E00063EF72E00E940C192FEF3FEF82C087E097
:1019F00097E00E94E915892B31F3C30167E077E096
:101A00004AE00E949219C30163E073E00E943D1A0C
:101A1000882309F466C0C50167E077E04AE00E94C8
:101A2000921987E097E060E173E00E94091987E06E
:101A300097E0B5010E945219C50160E070E00E9474
:101A40000A1A853409F444C08735D9F5C101B501B6
:101A500042E050E029E030E00E943D1BC201B501A8
:101A60004AE050E023E130E00E943D1B840183E026
:101A7000000F111F8A95E1F78D8D9E8D080F191F9C
:101A8000C2010E942C1A6B017C01C1010E942C1A18
:101A9000F8016483758386839783C082D182E28252
:101AA000F38287E097E06BE173E00E940C1987E016
:101AB00097E00E94E617C2010E949B1BC1010E9491
:101AC0009B1B0894811C911CC5010E949B1B09C093
:101AD000C5010E949B1BC3010E949B1B20E030E0BC
:101AE00008C00E945B117B018C01C3010E949B1BFB
:101AF0006ACFC9016E960FB6F894DEBF0FBECDBF98
:101B0000CF91DF911F910F91FF90EF90DF90CF90D9
:101B1000BF90AF909F908F907F906F905F904F900D
:101B20003F902F9008952F923F924F925F926F9225
:101B30007F928F929F92AF92BF92CF92DF92EF925D
:101B4000FF920F931F93DF93CF93CDB7DEB7AD977F
:101B50000FB6F894DEBF0FBECDBF2E8B3F8B488FE4
:101B6000598F6A8F7B8F8C8F9D8FAE8EBF8EC8A250
:101B7000D9A2EAA2FBA20CA31DA38A8C9B8CAC8CDD
:101B8000BD8C4E885F88688C798C8AA19BA1ACA1A2
:101B9000BDA18AA79BA7ACA7BDA78E8D9F8DA8A12D
:101BA000B9A18EA39FA3A8A7B9A7CE01019668ECFF
:101BB00072E00E940A1B87E097E06DE173E00E94EB
:101BC0000C190E945B117B018C0158E0C52ED12CB1
:101BD000CC0EDD1E0E945B116E197F09800B910BEC
:101BE000695E734080409040F8F087E097E00E9483
:101BF000E61787E097E063EF72E00E940C1968EE49
:101C000073E080E090E00E94691187E097E00E9415
:101C1000E61787E097E06DE173E00E940C190E94DF
:101C20005B117B018C01D6CF87E097E00E94E9151C
:101C3000892B81F2C60167E077E04AE00E949219A1
:101C4000C60163E073E00E943D1A882309F44DC089
:101C500087E097E06DE273E00E94091987E097E062
:101C6000B501A4012AE030E00E94961887E097E0D1
:101C700060E373E00E94091987E097E0B301A201D5
:101C80002AE030E00E94961887E097E060E373E076
:101C90000E94091987E097E04AA55BA56CA57DA580
:101CA0002AE030E00E94961887E097E060E373E056
:101CB0000E94091987E097E04EA15FA168A579A568
:101CC0002AE030E00E94D618C6010E949B1B0E94A9
:101CD0005B112B013C014FE0842E912C8C0E9D1E3C
:101CE0001E010894211C311C04C0C6010E949B1BCC
:101CF00071CF0E945B1164197509860997096151BA
:101D000077428040904048F087E097E063EF72E0D0
:101D10000E940C190FEF1FEF30C087E097E00E9480
:101D2000E915892B31F3C40167E077E04AE00E94AE
:101D30009219C101B4010E94841BC4010E949B1B23
:101D400029813A81232B19F480E090E002C082E8D7
:101D50009CE0892B21F4CC24DD24C0FECACFCE0127
:101D600001960E942C1A9B01AC018B0187E097E041
:101D7000B9014AE050E00E94EA18CE0101960E94A3
:101D80009B1BC801AD960FB6F894DEBF0FBECDBF4A
:101D9000CF91DF911F910F91FF90EF90DF90CF9047
:101DA000BF90AF909F908F907F906F905F904F907B
:101DB0003F902F900895883008F078C0E82FF0E029
:101DC000EE0FFF1FE253FB4F718360838330D9F026
:101DD000843030F4813009F444C0823060F439C07A
:101DE000853051F18530D8F0863009F446C087300F
:101DF00009F05CC04FC0809169008C7F842B809378
:101E00006900E89A089580916900440F551F440FB6
:101E1000551F837F842B80936900E99A08958091F0
:101E2000690074E0440F551F7A95E1F78F7C842B8D
:101E300080936900EA9A08958091690066E0440FF2
:101E4000551F6A95E1F78F73842B80936900EB9A95
:101E5000089580916A008C7F842B80936A00EC9AAD
:101E6000089580916A00440F551F440F551F837FCA
:101E7000842B80936A00ED9A089580916A0024E093
:101E8000440F551F2A95E1F78F7C842B80936A00BD
:101E9000EE9A089580916A0096E0440F551F9A9536
:101EA000E1F78F73842B80936A00EF9A08951F9255
:101EB0000F920FB60F920BB60F9211242F933F93F0
:101EC0004F935F936F937F938F939F93AF93BF9342
:101ED000EF93FF938091D2049091D304892B29F042
:101EE000E091D204F091D3041995FF91EF91BF9145
:101EF000AF919F918F917F916F915F914F913F91A2
:101F00002F910F900BBE0F900FBE0F901F90189542
:101F10001F920F920FB60F920BB60F9211242F93B0
:101F20003F934F935F936F937F938F939F93AF9361
:101F3000BF93EF93FF938091D4049091D504892BA4
:101F400029F0E091D404F091D5041995FF91EF9117
:101F5000BF91AF919F918F917F916F915F914F91C1
:101F60003F912F910F900BBE0F900FBE0F901F90BF
:101F700018951F920F920FB60F920BB60F92112465
:101F80002F933F934F935F936F937F938F939F9381
:101F9000AF93BF93EF93FF938091D6049091D704B2
:101FA000892B29F0E091D604F091D7041995FF917F
:101FB000EF91BF91AF919F918F917F916F915F91C1
:101FC0004F913F912F910F900BBE0F900FBE0F902E
:101FD0001F9018951F920F920FB60F920BB60F928B
:101FE00011242F933F934F935F936F937F938F931E
:101FF0009F93AF93BF93EF93FF938091D8049091F9
:10200000D904892B29F0E091D804F091D9041995CD
:10201000FF91EF91BF91AF919F918F917F916F91C0
:102020005F914F913F912F910F900BBE0F900FBE7C
:102030000F901F9018951F920F920FB60F920BB62C
:102040000F9211242F933F934F935F936F937F933E
:102050008F939F93AF93BF93EF93FF938091CE04A1
:102060009091CF04892B29F0E091CE04F091CF0418
:102070001995FF91EF91BF91AF919F918F917F91B2
:102080006F915F914F913F912F910F900BBE0F90E9
:102090000FBE0F901F9018951F920F920FB60F92C0
:1020A0000BB60F9211242F933F934F935F936F932F
:1020B0007F938F939F93AF93BF93EF93FF93809101
:1020C000D0049091D104892B29F0E091D004F091B3
:1020D000D1041995FF91EF91BF91AF919F918F918D
:1020E0007F916F915F914F913F912F910F900BBE18
:1020F0000F900FBE0F901F9018951F920F920FB662
:102100000F920BB60F9211242F933F934F935F932F
:102110006F937F938F939F93AF93BF93EF93FF93AF
:102120008091DA049091DB04892B29F0E091DA04A4
:10213000F091DB041995FF91EF91BF91AF919F91C1
:102140008F917F916F915F914F913F912F910F9060
:102150000BBE0F900FBE0F901F9018951F920F92FD
:102160000FB60F920BB60F9211242F933F934F93FC
:102170005F936F937F938F939F93AF93BF93EF93EF
:10218000FF938091DC049091DD04892B29F0E0918C
:10219000DC04F091DD041995FF91EF91BF91AF91AF
:1021A0009F918F917F916F915F914F913F912F916F
:1021B0000F900BBE0F900FBE0F901F901895382FE9
:1021C000863308F0365320917B00832F86958695C1
:1021D000869590E08170907043E0880F991F4A9532
:1021E000E1F7277F282B20937B003770809106042E
:1021F0008295880F880F807C832B80937C00809150
:102200007A00806480937A0080917A0086FDFCCF0A
:102210002091780040917900942F80E030E0282BC5
:10222000392BC90108951F920F920FB60F921124F6
:102230002F933F938F939F93AF93BF938091E2042B
:102240009091E304A091E404B091E5043091E60498
:102250000196A11DB11D232F2D5F2D3720F02D5785
:102260000196A11DB11D2093E6048093E204909392
:10227000E304A093E404B093E5048091DE0490911C
:10228000DF04A091E004B091E1040196A11DB11D0D
:102290008093DE049093DF04A093E004B093E10404
:1022A000BF91AF919F918F913F912F910F900FBE52
:1022B0000F901F9018958FB7F8942091E2043091F9
:1022C000E3044091E4045091E5048FBFB901CA01D1
:1022D00008959B01AC017FB7F8948091DE04909142
:1022E000DF04A091E004B091E10466B5A89B05C0AD
:1022F0006F3F19F00196A11DB11D7FBFBA2FA92F05
:10230000982F8827860F911DA11DB11D62E0880FAF
:10231000991FAA1FBB1F6A95D1F7BC012DC0FFB73B
:10232000F8948091DE049091DF04A091E004B091D4
:10233000E104E6B5A89B05C0EF3F19F00196A11D89
:10234000B11DFFBFBA2FA92F982F88278E0F911D7F
:10235000A11DB11DE2E0880F991FAA1FBB1FEA95BE
:10236000D1F7861B970B885E9340C8F2215030400E
:102370004040504068517C4F2115310541055105C1
:1023800071F60895789484B5826084BD84B58160C7
:1023900084BD85B5826085BD85B5816085BDEEE66D
:1023A000F0E0808181608083E1E8F0E0108280814C
:1023B00082608083808181608083E0E8F0E08081BA
:1023C00081608083E1EBF0E0808184608083E0EBDA
:1023D000F0E0808181608083E1E9F0E080818260CB
:1023E0008083808181608083E0E9F0E0808181608A
:1023F0008083E1EAF0E08081826080838081816077
:102400008083E0EAF0E0808181608083E1E2F1E0B6
:10241000808182608083808181608083E0E2F1E05E
:10242000808181608083EAE7F0E08081846080833E
:1024300080818260808380818160808380818068E8
:1024400080831092C1000895CF93DF93482F50E00E
:10245000CA0188589E4FFC0134914E5C5E4FFA01D0
:102460008491882369F190E0880F991FFC01EC5159
:10247000FF4FA591B491FC01E250FF4FC591D4915B
:10248000662351F42FB7F8948C91932F909589235C
:102490008C93888189230BC0623061F42FB7F89444
:1024A0008C91932F909589238C938881832B88839B
:1024B0002FBF06C09FB7F8948C91832B8C939FBF3E
:1024C000DF91CF910895893009F449C08A30A0F492
:1024D000843051F1853040F4823079F1833000F559
:1024E000813009F063C026C0873079F1883098F5D3
:1024F000863009F05BC025C08D3009F442C08E30B3
:1025000028F48B30B1F18C30C0F52DC0803109F446
:1025100042C0813109F445C08F3009F047C037C04F
:10252000809180008F7703C0809180008F7D8093A1
:102530008000089584B58F7702C084B58F7D84BDF7
:1025400008958091B0008F7703C08091B0008F7D97
:102550008093B0000895809190008F7707C080919C
:1025600090008F7D03C080919000877F80939000C2
:1025700008958091A0008F7707C08091A0008F7D83
:1025800003C08091A000877F8093A0000895809170
:1025900020018F7703C0809120018F7D80932001DF
:1025A000089580912001877F809320010895FF92F4
:1025B0000F931F93F62E482F50E0CA0182549E4F6E
:1025C000FC012491CA0188589E4FFC0114914E5C75
:1025D0005E4FFA0104910023C9F0222319F0822FE3
:1025E0000E946312E02FF0E0EE0FFF1FE250FF4F5A
:1025F000A591B4919FB7F894FF2021F48C91109588
:10260000812302C08C91812B8C939FBF1F910F91CE
:10261000FF9008950F931F93482F50E0CA018254F2
:102620009E4FFC012491CA0188589E4FFC010491E1
:102630004E5C5E4FFA011491112319F420E030E052
:1026400015C0222319F0822F0E946312812F90E07F
:10265000880F991F885E9E4FFC01A591B4918C91C3
:1026600020E030E0802311F021E030E0C9011F912B
:102670000F91089508951F920F920FB60F920BB607
:102680000F9211242F933F934F938F939F93EF9328
:10269000FF934091C60020912705309128052F5FB8
:1026A0003F4F2F7330708091290590912A0528178C
:1026B000390759F0E0912705F0912805E951FB4FC2
:1026C00040833093280520932705FF91EF919F9138
:1026D0008F914F913F912F910F900BBE0F900FBE96
:1026E0000F901F90189508951F920F920FB60F929A
:1026F0000BB60F9211242F933F934F938F939F9379
:10270000EF93FF934091CE002091AF053091B0053B
:102710002F5F3F4F2F7330708091B1059091B205BC
:102720002817390759F0E091AF05F091B005E1594C
:10273000FA4F40833093B0052093AF05FF91EF919E
:102740009F918F914F913F912F910F900BBE0F90C2
:102750000FBE0F901F90189508951F920F920FB6FD
:102760000F920BB60F9211242F933F934F938F9399
:102770009F93EF93FF934091D600209137063091BD
:1027800038062F5F3F4F2F7330708091390690913C
:102790003A062817390759F0E0913706F0913806C4
:1027A000E950FA4F40833093380620933706FF9163
:1027B000EF919F918F914F913F912F910F900BBE71
:1027C0000F900FBE0F901F90189508951F920F92B3
:1027D0000FB60F920BB60F9211242F933F934F9386
:1027E0008F939F93EF93FF93409136012091BF0603
:1027F0003091C0062F5F3F4F2F7330708091C1061C
:102800009091C2062817390759F0E091BF06F09160
:10281000C006E158F94F40833093C0062093BF06AD
:10282000FF91EF919F918F914F913F912F910F9039
:102830000BBE0F900FBE0F901F901895E0911307DD
:10284000F0911407E05CFF4F8191919120813181DB
:10285000821B930B8F739070892B11F00E943A1397
:10286000E0913207F0913307E05CFF4F8191919145
:1028700020813181821B930B8F739070892B11F013
:102880000E947313E0915107F0915207E05CFF4FF3
:102890008191919120813181821B930B8F73907074
:1028A000892B11F00E94AC13E0917007F091710731
:1028B000E05CFF4F8191919120813181821B930BCC
:1028C0008F739070892B11F00E94E51308951F9269
:1028D0000F920FB60F920BB60F9211242F933F93C6
:1028E0008F939F93EF93FF9320916B0530916C052D
:1028F00080916D0590916E052817390731F480910C
:10290000C1008F7D8093C10014C0E0916D05F091EE
:102910006E05E55DFA4F208180916D0590916E0501
:1029200001968F73907090936E0580936D05209340
:10293000C600FF91EF919F918F913F912F910F9042
:102940000BBE0F900FBE0F901F9018951F920F9205
:102950000FB60F920BB60F9211242F933F938F93C4
:102960009F93EF93FF932091F3053091F4058091AD
:10297000F5059091F6052817390731F48091C900C3
:102980008F7D8093C90014C0E091F505F091F605A4
:10299000ED54FA4F20818091F5059091F60501964E
:1029A0008F7390709093F6058093F5052093CE0079
:1029B000FF91EF919F918F913F912F910F900BBEBF
:1029C0000F900FBE0F901F9018951F920F920FB689
:1029D0000F920BB60F9211242F933F938F939F93D7
:1029E000EF93FF9320917B0630917C0680917D06CA
:1029F00090917E062817390731F48091D1008F7DA0
:102A00008093D10014C0E0917D06F0917E06E55CD4
:102A1000F94F208180917D0690917E0601968F73FB
:102A2000907090937E0680937D062093D600FF9150
:102A3000EF919F918F913F912F910F900BBE0F902F
:102A40000FBE0F901F9018951F920F920FB60F9206
:102A50000BB60F9211242F933F938F939F93EF9375
:102A6000FF9320910307309104078091050790910F
:102A700006072817390731F4809131018F7D809343
:102A8000310114C0E0910507F0910607ED53F94FAD
:102A90002081809105079091060701968F739070B1
:102AA000909306078093050720933601FF91EF91DD
:102AB0009F918F913F912F910F900BBE0F900FBE62
:102AC0000F901F901895AF92BF92DF92EF92FF92F6
:102AD0000F931F93CF93DF93EC017A018B01DD24D9
:102AE000403081EE580780E0680780E0780711F0F9
:102AF000DD24D39491E0A92EB12CEC89FD89DD2051
:102B000069F0C5010E8C02C0880F991F0A94E2F784
:102B1000808360E079E08DE390E005C0108260E89A
:102B200074E88EE190E0A80197010E94943B215047
:102B3000304040405040569547953795279580E165
:102B40002030380720F0DD2011F0DD24D6CFE889D1
:102B5000F9893083EA89FB892083EE89FF894081E6
:102B600021E030E0C9010A8C02C0880F991F0A9445
:102B7000E2F7482B4083EE89FF894081C9010B8C25
:102B800002C0880F991F0A94E2F7482B4083EE8910
:102B9000FF894081C9010C8C02C0880F991F0A94DB
:102BA000E2F7482B4083EE89FF8980810D8C02C0BB
:102BB000220F331F0A94E2F7209528232083DF9108
:102BC000CF911F910F91FF90EF90DF90BF90AF904A
:102BD0000895DC011C96ED91FC911D97E05CFF4F80
:102BE0002191319180819181281B390B2F73307095
:102BF000C9010895DC011C96ED91FC911D97E05CE4
:102C0000FF4F20813181E054F040DF01AE5BBF4FC8
:102C10008D919C9111972817390719F42FEF3FEFE9
:102C200007C08D919C91E80FF91F8081282F30E01B
:102C3000C9010895DC011C96ED91FC911D97E05CA3
:102C4000FF4F20813181E054F040DF01AE5BBF4F88
:102C50008D919C9111972817390719F42FEF3FEFA9
:102C600010C08D919C911197E80FF91F20818D91D3
:102C70009C91119701968F73907011969C938E93EF
:102C800030E0C9010895FC0186859785DC01A05CD0
:102C9000BF4FFC01EE5BFF4F2D913C91119780815E
:102CA000918128173907C1F70895CF93DF93EC017D
:102CB000EE85FF85E05CFF4F20813181E054F040DC
:102CC0002F5F3F4F2F733070DF01AE5BBF4F8D9191
:102CD0009C91119728173907D1F3E05CFF4F808151
:102CE0009181E054F040E80FF91F6083EE85FF8585
:102CF000E05CFF4F31832083EE89FF89208181E0F2
:102D000090E00D8C02C0880F991F0A94E2F7282BDF
:102D1000208381E090E0DF91CF9108951F9310927E
:102D20000A071092090728EE33E040E050E02093B4
:102D30000B0730930C0740930D0750930E0763E188
:102D400074E0709308076093070787EE94E0909310
:102D50001407809313078BE295E0909316078093F6
:102D6000150785EC90E0909318078093170784EC83
:102D700090E090931A078093190780EC90E090936D
:102D80001C0780931B0781EC90E090931E078093B3
:102D90001D0786EC90E09093200780931F0714E0B6
:102DA00010932107B3E0B0932207A7E0A093230775
:102DB000F5E0F0932407E1E0E0932507109229075E
:102DC0001092280720932A0730932B0740932C0753
:102DD00050932D0770932707609326078FE695E0A1
:102DE000909333078093320783EB95E090933507F8
:102DF000809334078DEC90E09093370780933607EB
:102E00008CEC90E0909339078093380788EC90E041
:102E100090933B0780933A0789EC90E090933D07AD
:102E200080933C078EEC90E090933F0780933E07A1
:102E300010934007B0934107A0934207F0934307D4
:102E4000E0934407109248071092470720934907E0
:102E500030934A0740934B0750934C0770934607B3
:102E60006093450787EF95E0909352078093510751
:102E70008BE396E0909354078093530785ED90E0A1
:102E8000909356078093550784ED90E090935807F0
:102E90008093570780ED90E090935A0780935907ED
:102EA00081ED90E090935C0780935B0786ED90E066
:102EB00090935E0780935D0710935F07B093600760
:102EC000A0936107F0936207E0936307109267078E
:102ED00010926607209368073093690740936A074A
:102EE00050936B0770936507609364078FE796E0D4
:102EF000909371078093700783EC96E0909373072B
:102F00008093720785E391E090937507809374072F
:102F100084E391E0909377078093760780E391E0D4
:102F2000909379078093780781E391E090937B07F2
:102F300080937A0786E391E090937D0780937C07E6
:102F400010937E07B0937F07A0938007F0938107CB
:102F5000E09382071F910895CF93DF930E94C211DF
:102F60000E94A208CEE1D4E10E94CE062097E1F3B0
:102F70000E941E14F9CF0895CF92DF92EF92FF9234
:102F80000F931F93CF93DF937C016B018A01C0E005
:102F9000D0E00FC0D6016D916D01D701ED91FC918C
:102FA0000190F081E02DC7011995C80FD91F01507C
:102FB00010400115110571F7CE01DF91CF911F91DE
:102FC0000F91FF90EF90DF90CF900895EF92FF92D6
:102FD0000F931F938C01DC01ED91FC910190F08126
:102FE000E02D6DE019957C01D801ED91FC910190E7
:102FF000F081E02DC8016AE019959C012E0D3F1D5E
:10300000C9011F910F91FF90EF900895EF92FF92E9
:103010000F931F937C01DC01ED91FC910190F081F5
:10302000E02D19958C01C7010E94E617080F191FA2
:10303000C8011F910F91FF90EF900895CF93DF93F8
:10304000DB010D900020E9F71197A61BB70BEC01EF
:10305000E881F9810280F381E02DAD011995DF91BE
:10306000CF9108954F925F927F928F929F92AF92ED
:10307000BF92CF92DF92EF92FF920F931F93DF9355
:10308000CF93CDB7DEB7A1970FB6F894DEBF0FBED2
:10309000CDBF2C01742ECB01223008F42AE019A2F6
:1030A00031E2C32ED12CCC0EDD1E822E9924AA240F
:1030B000BB24672D752FA50194010E94943B7901D3
:1030C0008A01C801B701A50194010E944E3B472D1A
:1030D000461B0894C108D1084A3014F4405D01C071
:1030E000495CF6014083E114F1040105110521F06A
:1030F0007E2C5F2DC801DDCFC201B6010E941E18D3
:10310000A1960FB6F894DEBF0FBECDBFCF91DF9171
:103110001F910F91FF90EF90DF90CF90BF90AF90F5
:103120009F908F907F905F904F900895CF92DF9205
:10313000EF92FF920F931F93CF93DF93EC016A01FD
:103140007B012115310541F4E881F9810190F0817D
:10315000E02D642F19951FC02A303105D1F477FF77
:1031600017C0E881F9810190F081E02D6DE2199599
:103170008C0144275527BA014C195D096E097F0956
:10318000CE012AE00E9432189801280F391F04C08E
:103190002AE00E9432189C01C901DF91CF911F9152
:1031A0000F91FF90EF90DF90CF900895EF92FF92F4
:1031B0000F931F937C010E9496188C01C7010E94F7
:1031C000E6179C01200F311FC9011F910F91FF903D
:1031D000EF900895CF92DF92EF92FF920F931F939B
:1031E0006C017B019A010027F7FC0095102FB801B4
:1031F000A7010E9496188C01C6010E94E617080FCD
:10320000191FC8011F910F91FF90EF90DF90CF9091
:1032100008950E941E180895EF92FF920F931F9336
:103220007C010E941E188C01C7010E94E617080F3E
:10323000191FC8011F910F91FF90EF900895AF9251
:10324000BF92CF92DF92EF92FF920F931F93CF9393
:10325000DF935C016B01C0E0D0E0EE24FF2410C0DE
:10326000D501ED91FC9100811181C601BE010E9442
:103270001B1A682FC501F8011995E80EF91E219651
:10328000F60184819581C817D90750F3C701DF91F2
:10329000CF911F910F91FF90EF90DF90CF90BF9053
:1032A000AF900895EF92FF920F931F937C010E94BD
:1032B0001F198C01C7010E94E6179C01200F311FC6
:1032C000C9011F910F91FF90EF900895CF93DF9365
:1032D000EC010E945B11688779878A879B87E88168
:1032E000F9810680F781E02DCE0119959C0197FFA9
:1032F00015C00E945B11288539854A855B85621B54
:10330000730B840B950B2C813D814E815F8162177D
:1033100073078407950718F32FEF3FEFC901DF917B
:10332000CF910895CF92DF92FF920F931F93CF9387
:10333000DF93082FF92E6B01142F62E373E00E94D4
:103340000A1BC6010E946619BC01C12FDD27C7FDFB
:10335000D09508C0802F9F2D0E94C31AC6010E94DD
:103360006619BC0177FD03C06C177D0799F7802FA4
:103370009F2DDF91CF911F910F91FF90DF90CF9004
:1033800008952F923F924F925F926F927F928F9209
:103390009F92AF92BF92CF92DF92EF92FF920F93E4
:1033A0001F93DF93CF93CDB7DEB73B014C011901DB
:1033B0002A016E897F89888D998D6A197B098C090C
:1033C0009D09621A730A840A950AA40193010E9456
:1033D0004E3BE218F30804091509A80197010E9461
:1033E000B63B2A0D3B1D4C1D5D1DB901CA01CF9195
:1033F000DF911F910F91FF90EF90DF90CF90BF90E2
:10340000AF909F908F907F906F905F904F903F9084
:103410002F900895FC01848195816817790748F4FD
:103420000190F081E02D309721F0E60FF71F8081A9
:10343000089580E00895FC018481958168177907DB
:1034400048F40190F081E02D309721F0E60FF71F4E
:103450008081089580E00895FC018081918100972A
:1034600029F420E030E040E050E004C00E94CF3A70
:103470009B01AC01B901CA010895DC01FB0114965E
:103480008D919C911597892B31F461157105A9F0E7
:1034900090E0808108C00D90BC91A02D6115710550
:1034A00029F490E08C91882349F407C0CD010E9453
:1034B0001A3B9C0190E0232B09F491E0892F089599
:1034C0000F931F93CF93DF93EC018B016F5F7F4FBF
:1034D000888199810E94EE39009711F480E005C03F
:1034E000998388831B830A8381E0DF91CF911F91A9
:1034F0000F910895CF93DF93EC0188819981892BF7
:1035000029F08A819B818617970760F4CE010E947B
:10351000601A882341F08C819D81892B19F4E88100
:10352000F981108281E0DF91CF910895EF92FF92AF
:103530000F931F93CF93DF93EC017B016C817D810F
:10354000E114F104C1F04115510599F08A01060F0B
:10355000171FB8010E947A1A882369F0888199811F
:103560002C813D81820F931FB7010E94233B1D8355
:103570000C8381E001C080E0DF91CF911F910F911A
:10358000FF90EF900895DF93CF930F920F92CDB7F6
:10359000DEB769831A82BE016F5F7F4F41E050E062
:1035A0000E94961A0F900F90CF91DF910895CF93BC
:1035B000DF93EC0188819981009711F00E945639C0
:1035C000198218821D821C821B821A82DF91CF9180
:1035D0000895EF92FF920F931F93CF93DF93EC0127
:1035E0007B018A01BA010E947A1A882321F4CE0154
:1035F0000E94D71A07C01D830C8388819981B70167
:103600000E94233BCE01DF91CF911F910F91FF903C
:10361000EF900895CF93DF93EC01198218821B82FB
:103620001A821D821C821E826115710551F0DB0118
:103630000D900020E9F71197A61BB70BAD010E9472
:10364000E91ADF91CF9108950F931F93182F092F37
:103650006115710559F0DB010D900020E9F7119714
:10366000A61BB70BAD010E94E91A02C00E94D71A2F
:10367000812F902F1F910F910895BF92CF92DF92CB
:10368000EF92FF920F931F93CF93DF93082FB92EE2
:103690006B017A01E9012417350710F4EA01790179
:1036A000802F9B2D63E373E00E940A1BD6011496C2
:1036B0008D919C9115978E159F05D0F08C179D07C5
:1036C00008F4EC01D601ED91FC911197EC0FFD1F70
:1036D000108110826D917C916E0D7F1D802F9B2D2E
:1036E0000E94241BD601ED91FC91EC0FFD1F10836D
:1036F000802F9B2DDF91CF911F910F91FF90EF9025
:10370000DF90CF90BF900895CF93DF93EC01FB0142
:103710008617970761F0608171816115710529F045
:10372000448155810E94E91A02C00E94D71ACE0135
:10373000DF91CF910895FC01808191810E945639DB
:103740000895FC011382128283E294E091838083C6
:103750007583648357834683718760875387428765
:10376000158A158614861786168621E0248B8FEF1E
:103770009FEF938B828B918B808B268B08952F925A
:103780003F924F925F926F927F928F929F92AF92F1
:10379000BF92CF92DF92EF92FF920F931F93DF932E
:1037A000CF93CDB7DEB72E970FB6F894DEBF0FBE1E
:1037B000CDBF9E878D871B015E834D83A7012601A8
:1037C00071E0C72ED12CC21AD30AC901880F991FE4
:1037D00066277727681B790B7A8369836D807E80E3
:1037E00008946108710883E0882E912C8E0C9F1C30
:1037F000790181E090E09C838B83AA24BB2410E0B4
:10380000D801A170B070B887AF83FA013196FA87FA
:10381000E987B801627070707C876B8777C0D7FCCE
:103820000AC00894E108F10889819A8102969A8376
:103830008983C80ED91E0894A11CB11CAB81BC8120
:103840001296BC83AB83EF81F885EF2B41F1AD85F8
:10385000BE85ED91FC911197B501620D731D4D81EF
:103860005E814E195F099701220F331F89859A8562
:10387000280F391F0084F185E02DCD0182011995B3
:10388000AD85BE85ED91FC911197B701620D731D59
:103890000084F185E02DCD01A30194011995EB85FC
:1038A000FC85EF2B41F1AD85BE85ED91FC91119723
:1038B000B1016A197B094D815E814E195F0997013B
:1038C000220F331F89859A85280F391F0084F185BF
:1038D000E02DCD0182011995AD85BE85ED91FC915C
:1038E0001197B1016E197F090084F185E02DCD019A
:1038F000A30194011995EB81FC81CE0EDF1E089483
:103900006108710862E070E0860E971EAE14BF0475
:103910000CF485CF2E960FB6F894DEBF0FBECDBF48
:10392000CF91DF911F910F91FF90EF90DF90CF909B
:10393000BF90AF909F908F907F906F905F904F90CF
:103940003F902F9008956F927F928F929F92AF92A7
:10395000BF92CF92DF92EF92FF920F931F937C0161
:103960004B013A0159016801DC01ED91FC91421BC8
:10397000530B220F331F2F5F3F4F0084F185E02D43
:103980001995C701B401A301950103E0EE24FF24BA
:103990000E94BF1B1F910F91FF90EF90DF90CF907F
:1039A000BF90AF909F908F907F906F9008952F92CF
:1039B0003F924F925F926F927F928F929F92AF92BF
:1039C000BF92CF92DF92EF92FF920F931F93DF93FC
:1039D000CF9300D00F92CDB7DEB73C017C836B83D1
:1039E0006A015901FA82E982222433249801241BB6
:1039F000350B37FF03C0309521953F4FC5014B81F3
:103A00005C81841B950B97FF03C0909581959F4F18
:103A1000821793075CF481E0282E312CC601CB80FD
:103A2000DC809C838B83C80185015C018B819C8138
:103A3000A816B90644F4C501AB80BC809C838B8377
:103A4000C80186016C012501AB81BC814A1A5B0A61
:103A50007801EC18FD08F7FE04C0F094E194F10839
:103A6000F394C016D10624F088248A94982C03C0BD
:103A7000B1E08B2E912CC20162E070E00E94813B8C
:103A80008B0125C0D301ED91FC912114310441F04B
:103A90000480F581E02DC301B6014B815C8107C034
:103AA0000480F581E02DC3016B817C81A601298111
:103AB0003A8119950E191F0917FF04C0C80CD91CAB
:103AC000040D151DEB81FC813196FC83EB834B814A
:103AD0005C81A416B506B4F60F900F900F900F906E
:103AE000CF91DF911F910F91FF90EF90DF90CF90DA
:103AF000BF90AF909F908F907F906F905F904F900E
:103B00003F902F9008954F925F926F927F928F9285
:103B10009F92AF92BF92CF92DF92EF92FF920F935C
:103B20001F936C015B014A0139012801DC01ED9111
:103B3000FC910284F385E02D87011995D601ED9162
:103B4000FC91A40141505040440D551D0284F38561
:103B5000E02DC601B50193011995D601ED91FC91B7
:103B60000084F185E02DC601B501A40192011995EB
:103B7000D601ED91FC910894A108B108A60CB71CE0
:103B80000084F185E02DC601B501A40192011995CB
:103B90001F910F91FF90EF90DF90CF90BF90AF906B
:103BA0009F908F907F906F905F904F900895CF92ED
:103BB000DF92EF92FF920F931F93DC016B0178016C
:103BC000ED91FC918A0101501040020F131F0680F5
:103BD000F781E02D960119951F910F91FF90EF90BD
:103BE000DF90CF900895CF92DF92EF92FF920F93E4
:103BF0001F93DC016A01C9017801ED91FC911197D5
:103C00009B0121503040280F391F0680F781E02D9D
:103C1000CD01860119951F910F91FF90EF90DF90D4
:103C2000CF9008956F927F928F929F92AF92BF92A2
:103C3000CF92DF92EF92FF920F931F93CF93DF9378
:103C40005C013A0169014801EB01C60ED71E0DC0A7
:103C5000D501ED91FC910084F185E02DC501BE01F7
:103C6000A3019401870119952196CC15DD0584F3F4
:103C7000DF91CF911F910F91FF90EF90DF90CF9048
:103C8000BF90AF909F908F907F906F900895EF922C
:103C9000FF920F931F93FC017B01A081B1812085CE
:103CA0003185028513851E960D90BC91A02D60E094
:103CB00070E040E050E0FD0119951F910F91FF90D9
:103CC000EF9008952F923F924F925F926F927F9262
:103CD0008F929F92AF92BF92CF92DF92EF92FF921C
:103CE0000F931F93DF93CF93CDB7DEB72F970FB608
:103CF000F894DEBF0FBECDBF5C015E834D83188795
:103D00000F83FA86E986CB86DC0118968D919C910B
:103D10001997681779070CF0A4C01A968D919C9199
:103D20001B97481759070CF09CC0EC2DF0E0FF875B
:103D3000EE87CF01880F991F8E0F9F1F880F991F45
:103D4000860F971F181619060CF08BC0CF01F3E0F1
:103D5000880F991FFA95E1F7840F951F1816190619
:103D60000CF07FC085E0289FA00111245A8349836D
:103D70002B011B011C825C81553011F480E005C0D1
:103D8000E981FA81EC5FFD4F84912C863D866D8040
:103D90007E8043011B82C82EDD2480FF1CC0D5011C
:103DA000ED91FC91BB85B13049F40480F581E02DA3
:103DB000C501B201A3012F81388522C00684F78591
:103DC000E02DC5016C857D85A4012E853F85890187
:103DD000EF80F88423C0E985FA852F813885E217C2
:103DE000F307E9F0D501ED91FC91BB85B13051F4B9
:103DF0000480F581E02DC501B201A30129853A8532
:103E000019950DC00684F785E02DC5016C857D856B
:103E1000A4012E853F858901E984FA841995EB81F7
:103E2000EF5FEB832E853F85820E931E0894611C05
:103E3000711CE83021F0D594C7948C2DACCF3C8117
:103E40003F5F3C834E855F85240E351E0894411CE0
:103E5000511C89819A8101969A838983363009F0B1
:103E60008ACF2F960FB6F894DEBF0FBECDBFCF918D
:103E7000DF911F910F91FF90EF90DF90CF90BF9057
:103E8000AF909F908F907F906F905F904F903F90FA
:103E90002F900895CF92EF92FF920F931F93CF939D
:103EA000DF93EC01262F6A3061F42C8930E003E0C7
:103EB000220F331F0A95E1F78E859F85820F931F8E
:103EC00037C06D30C9F16C857D854E855F85088969
:103ED0001989EA88FB88CC880E94621E2C8986E0BA
:103EE000289FB00111248C859D85680F791F7D87DF
:103EF0006C878E89882301F1422F50E08AEF9FEF73
:103F00009C01429FC001439F900D529F900D112430
:103F100028853985820F931F861797076CF413E065
:103F2000440F551F1A95E1F78E859F85840F951FC5
:103F30009F878E871D861C8681E090E0DF91CF9160
:103F40001F910F91FF90EF90CF900895FC0175871E
:103F50006487578746870895FC01662309F461E06A
:103F6000648B0895FC01738B628B718B608B089559
:103F70000895DC0158968C915897882329F06EBDDE
:103F80000DB407FEFDCF089530E840E050E070E04A
:103F9000832F90E0862397235996ED91FC915A97B1
:103FA00096962C919697892B21F08081822B808385
:103FB00004C080812095282320835B96ED91FC919D
:103FC0005C97808197969C919797892B80835B96CD
:103FD000ED91FC915C97908197968C919797809545
:103FE0008923808336954F5F5F4F4830510581F6B6
:103FF00008950F931F938C01DC015F96ED91FC9166
:104000009097908199968C91999780958923808338
:104010005D96ED91FC915E97908198968C9180953C
:1040200089238083C8010E94B91FD8015D96ED9154
:10403000FC915E97808198969C91892B80831F913B
:104040000F9108950F931F938C01DC015F96ED9102
:10405000FC919097808199969C919997892B808368
:104060005D96ED91FC915E97908198968C918095EC
:1040700089238083C8010E94B91FD8015D96ED9104
:10408000FC915E97808198969C91892B80831F91EB
:104090000F910895CF92DF92EF92FF920F931F93AB
:1040A0007C01162FC42ED22E6AE20E94F91FC7018E
:1040B00060E00E942220F70162A5610FC7010E9403
:1040C0002220C70160E00E942220F70162A56D0D49
:1040D000C7010E942220C7016BE20E94F91FC7019D
:1040E00060E00E942220F70163A56C0DC7010E94C9
:1040F0002220C70160E00E942220F70163A5600F23
:10410000C7010E942220C7016CE20E94F91F1F9183
:104110000F91FF90EF90DF90CF900895FF920F9353
:104120001F938C01F62E672FDC015F96ED91FC91B9
:104130009097808199969C919997892B80835D9621
:10414000ED91FC915E97908198968C918095892352
:104150008083C8010E94B91FC8016F2D0E94B91F3A
:10416000D8015D96ED91FC915E97808198969C9127
:10417000892B80831F910F91FF900895FF920F93D9
:104180001F93CF93DF93EC01F22E132F77FD2EC0F8
:1041900088859985681779074CF557FD27C08A856A
:1041A0009B854817590714F5262F2F5F042F0F5FA3
:1041B000CE010E944A20EF8DF8A1808199A5892B1C
:1041C0008083ED8DFE8D908188A5809589238083E5
:1041D000CE01612F0E94B91FCE016F2D0E94B91F21
:1041E000ED8DFE8D808198A5892B8083DF91CF9105
:1041F0001F910F91FF900895DF92EF92FF920F931E
:104200001F93CF93DF93EC01FB017901D02E8885BA
:10421000998568177907D4F52A853B854217530796
:10422000ACF5C701840F951F281739071CF47901D5
:10423000E41AF50A042F01500E0DCE016E2F2E2F19
:104240000E944A20EF8DF8A1808199A5892B808357
:10425000ED8DFE8D908188A580958923808308C08F
:10426000CE01612F0E94B91FCE016D2D0E94B91F92
:104270000894E108F1088FEFE8168FEFF80681F750
:10428000ED8DFE8D808198A5892B8083DF91CF9164
:104290001F910F91FF90EF90DF900895DF92EF92C2
:1042A000FF920F931F93CF93DF93EC01FA017901F3
:1042B000D02E2885398562177307D4F58A859B85AA
:1042C00048175907ACF5C701860F971F28173907FC
:1042D0001CF47901E61AF70A262F21502E0DCE0183
:1042E0004E2F0E2F0E944A20EF8DF8A1808199A5B4
:1042F000892B8083ED8DFE8D908188A58095892303
:10430000808308C0CE01612F0E94B91FCE016D2DA0
:104310000E94B91F0894E108F1088FEFE8168FEFAB
:10432000F80681F7ED8DFE8D808198A5892B80831D
:10433000DF91CF911F910F91FF90EF90DF90089543
:10434000EF92FF920F931F93FC017B01A081B1813B
:1043500020853185028513851E960D90BC91A02D78
:1043600060E070E040E050E0FD0119951F910F9171
:10437000FF90EF900895AF92BF92CF92DF92EF92AD
:10438000FF920F931F93CF93DF936C015901E801C4
:10439000DC0118962D913C911997621773070CF068
:1043A00057C01A96ED91FC911B974E175F070CF0C2
:1043B0004FC0C501860F971F281739071CF45901F4
:1043C000A61AB70ACE01840F951FE817F9071CF447
:1043D000EF01C41BD50B262F21502A0D042F0150AD
:1043E0000C0FC6010E944A20D6015F96ED91FC9108
:1043F0009097808199969C919997892B80835D965F
:10440000ED91FC915E97908198968C91809589238F
:1044100080838E010EC0C6016F2D0E94B91FC60198
:104420006E2D0E94B91F21971C161D06A4F3015082
:1044300010401016110614F4E501F6CFD6015D9672
:10444000ED91FC915E97808198969C91892B808359
:10445000DF91CF911F910F91FF90EF90DF90CF9060
:10446000BF90AF9008951F93CF93DF93EC01162F69
:1044700066E30E94F91F13701D8B113081F011301B
:1044800028F01230A9F01330B1F523C08F898230A3
:1044900019F4CE0160EC14C0CE0168EC11C08F8914
:1044A000823019F4CE0160EA1CC0CE0168EA19C05E
:1044B0008F89823019F4CE0160E002C0CE0168E03D
:1044C0000E94222080E890E09987888780EA90E027
:1044D00010C08F89823019F4CE0160E602C0CE018F
:1044E00068E60E94222080EA90E09987888780E829
:1044F00090E09B878A87DF91CF911F910895662373
:1045000011F460E201C061E20E94F91F0895AF92C8
:10451000BF92CF92DF92EF92FF920F931F93CF93B0
:10452000DF935C01FB01EB012196D49031C08E0139
:104530000F5F1F4FFE016491C5010E94F91F7801B2
:104540000894E11CF11CF801C4900C2D0F77E701D1
:10455000102F08C0FE012196E491C5016E2F0E9424
:10456000222011501123B1F7E701C00FD11DC7FE62
:104570000EC0FE018491682F70E06F3F710511F449
:1045800064EF71E0219680E090E00E946911DA9476
:10459000DD2069F6DF91CF911F910F91FF90EF9091
:1045A000DF90CF90BF90AF9008950F931F93CF935C
:1045B000DF93EC018B011BA61AA68AA161E00E9481
:1045C000241289A161E00E942412E9A14E2F50E03B
:1045D000FA01EE5CFE4FE491F0E0EE0FFF1FE250B7
:1045E000FF4F859194919E8F8D8FEAA12E2F30E001
:1045F000F901EE5CFE4FE491F0E0EE0FFF1FE25098
:10460000FF4F8591949198A38F8F48585E4FFA0180
:10461000849188A728583E4FF901849189A7888DF5
:10462000882361F00E94093680E00E94F83581E01D
:104630000E94EA3580E00E94F3353DC08DA161E023
:104640000E9424128CA161E00E942412EDA14E2F41
:1046500050E0FA01EE5CFE4FE491F0E0EE0FFF1F38
:10466000E250FF4FA591B491BC8FAB8FECA12E2FE0
:1046700030E0F901EE5CFE4FE491F0E0EE0FFF1F39
:10468000E250FF4F859194919A8F898F48585E4FE1
:10469000FA0194919FA328583E4FF90184918EA36B
:1046A0008C91909598239C93E98DFA8D90818EA1A1
:1046B000809589238083ED8DFE8D908188A58095DE
:1046C000892380838BA1882309F161E00E94241251
:1046D0008BA161E00E94D71264EF71E080E090E06E
:1046E0000E9469118BA160E00E94D71264EF71E013
:1046F00080E090E00E9469118BA161E00E94D712D6
:1047000064EF71E080E090E00E94691101151105ED
:1047100021F0CE01B8010E948722DF91CF911F9135
:104720000F9108951F93CF93DF93EC01162F6FEF36
:1047300076E00E94D522112351F4CE016AE377E09E
:104740000E94872282E08AA781E08BA705C0CE0164
:1047500067E477E00E948722CE0164E577E00E945B
:104760008722123041F4CE0166E30E94F91FCE0188
:1047700060EC0E9422201F8BDF91CF911F91089542
:10478000DF92EF92FF920F931F938C01F62EE42E8F
:10479000D22E60E870E040EA50E00E94A11B8BE35B
:1047A00094E0F80191838083F1A2E2A2D3A281E098
:1047B000808F15A214A21F910F91FF90EF90DF90B0
:1047C000089582E090E0A0E0B0E0809383079093AA
:1047D0008407A0938507B093860710929A071092DA
:1047E000A4071092A30783E594E09093A207809317
:1047F000A1071092A6071092C3071092C407109247
:10480000C7071092C90708952F923F924F925F9267
:104810006F927F928F929F92AF92BF92CF92DF92D0
:10482000EF92FF920F931F93DF93CF93CDB7DEB735
:10483000C754D0400FB6F894DEBF0FBECDBF582E80
:10484000492EFB013A01190180A191A1998B888B16
:1048500023E534E03F872E8782A18A8B83A18B8B4F
:1048600084A195A1A6A1B7A18C8B9D8BAE8BBF8B8C
:1048700080A591A5A2A5B3A5888F998FAA8FBB8F7C
:1048800084A595A5A6A5B7A58C8F9D8FAE8FBF8F4C
:1048900080A988A381A992A9A3A9B4A989A39AA34D
:1048A000ABA3BCA385A996A9A7A9B0AD8DA39EA3D0
:1048B000AFA3B8A781AD92AD9AA789A71EA61DA6E2
:1048C0003CA72BA718AA7A018E01025F1F4F3BE27B
:1048D000A32EB12CAC0EBD1E4E010894811C911C60
:1048E00035C0D7018C918F3221F40894E11CF11C62
:1048F0002DC0422F4E194D3008F04CE0C42EDD245F
:10490000C401B701A6010E942A3BF401EC0DFD1D74
:104910001082C5010E94D62AC501B801A40121E078
:104920000E941E30882351F4E52DF42D138212824B
:1049300083E594E091838083158266C0EC0CFD1CB6
:10494000C8010E94D62AC50158018C01C7016FE237
:1049500070E00E940F3B9C01009719F6E618F708DB
:10496000F101F182E082E52DF42DD80112968D91AE
:104970009C9113979383828383E594E09183808352
:1049800014968C911497848315968C911597858332
:1049900016962D913D914D915C9119972683378301
:1049A000408751871A962D913D914D915C911D97AD
:1049B00022873387448755871E962D913D914D91CF
:1049C0005C91519726873787408B518B52968C91FB
:1049D0005297828B53962D913D914D915C915697B4
:1049E000238B348B458B568B57962D913D914D9152
:1049F0005C915A97278B308F418F528F5B968D91A8
:104A00009C915C97948F838F852D942DC95BDF4F8C
:104A10000FB6F894DEBF0FBECDBFCF91DF911F91CF
:104A20000F91FF90EF90DF90CF90BF90AF909F904D
:104A30008F907F906F905F904F903F902F90089550
:104A40009F92AF92BF92CF92DF92EF92FF920F931D
:104A50001F93DF93CF93CDB7DEB7C657D0400FB6C5
:104A6000F894DEBF0FBECDBFC82E992E8A01D22E7C
:104A700043E0A42EB12CAC0EBD1EC501A8019E01C1
:104A80002F5F3F4F0E940424E980FA80E00EF11E60
:104A9000F701808143E554E02885882309F03FC071
:104AA0008D819E819BA38AA359A348A38F818CA348
:104AB0002DA389859A85AB85BC858EA39FA3A8A7C6
:104AC000B9A78D859E85AF85B8898AA79BA7ACA716
:104AD000BDA789899A89AB89BC898EA79FA7A8ABF6
:104AE000B9AB8D898AAB8E899F89A88DB98D8BAB27
:104AF0009CABADABBEAB8A8D9B8DAC8DBD8D8FABB2
:104B000098AFA9AFBAAF8E8D9F8D9CAF8BAF8C2D18
:104B1000992DBE01605E7F4F44E353E09FC0FE01CC
:104B2000FF96118210825EAF4DAFFE01EE5BFF4F2C
:104B300010822223A9F02250CE01CD96223048F4D3
:104B400061EA77E0A7012D2D0E941E30882381F4B1
:104B500007C0B501A7012D2D0E941E30882329F41E
:104B60008C2D992D0E9476377BC0C5010E94D62AD4
:104B7000F6E0DF2259F0FE01E05BFF4F40815181FA
:104B800062817381CE01CD960E94C6299E01265A6C
:104B90003F4FFE01FF9680819181F90193838283CB
:104BA00083E594E091838083FE01EF5BFF4F80817A
:104BB000F9018483FE01EE5BFF4F8081F90185835B
:104BC000FE01ED5BFF4F80819181A281B381F901EC
:104BD00086839783A087B187FE01E95BFF4F8081C1
:104BE0009181A281B381F90182879387A487B587D8
:104BF000FE01E55BFF4F80819181A281B381F901C4
:104C000086879787A08BB18BFE01E15BFF4F808188
:104C1000F901828BFE01E05BFF4F80819181A281CF
:104C2000B381F901838B948BA58BB68BFE01EC5A73
:104C3000FF4F80819181A281B381F901878B908F91
:104C4000A18FB28FFE01E85AFF4F80819181F90157
:104C5000948F838F8C2D992DB901A7010E948038E4
:104C60008C2D992DCA58DF4F0FB6F894DEBF0FBEBA
:104C7000CDBFCF91DF911F910F91FF90EF90DF900B
:104C8000CF90BF90AF909F900895EF92FF920F93B7
:104C90001F93CF93DF93EC01462F8C01055C1F4FD0
:104CA000C80161E00E94B2288823D1F0FC2EED2ECD
:104CB000CE01B80141E00E94BF31882339F4CE0112
:104CC000B80140E00E94BF31882351F0CE014E96DA
:104CD0006F2D7E2D0E940C2D882319F081E001C0DC
:104CE00080E0DF91CF911F910F91FF90EF90089599
:104CF000FC01673020F086E1858380E00895262F4F
:104D000030E060FD02C0663019F48DB58E7F02C0C0
:104D10008DB581608DBD8CB58C7F8CBD4CB522FD71
:104D200002C090E001C092E036952795822F8170F5
:104D3000842B892B8CBD81E00895FF920F931F93E4
:104D4000CF93DF938B010E945B11EB01FF24FA9458
:104D5000FEBC0DB407FEFDCF8EB58F3F11F481E090
:104D600008C00E945B116C1B7D0B6017710780F3FC
:104D700080E0DF91CF911F910F91FF900895FC018A
:104D8000848160E00E94D7120895FC01848161E073
:104D90000E94D7120895DC016EBDFA0120E030E0D8
:104DA0000DB407FEFDCF80818EBD0DB407FEFDCF93
:104DB00081818EBD2E5F3F4F329682E020303807D2
:104DC00079F70DB407FEFDCF8FEF8EBD0DB407FE52
:104DD000FDCF8FEF8EBD0DB407FEFDCF8FEF8EBDE3
:104DE0000DB407FEFDCF8EB51A968C931A978F716E
:104DF000853011F481E0089581E115968C93159723
:104E0000CD010E94C52680E00895FF920F931F9365
:104E1000CF93DF93EC010E945B118B01FF24FA9486
:104E200009C00E945B11601B710B6D52714010F044
:104E30008FE00DC0FEBC0DB407FEFDCF8EB58A8796
:104E40008F3F79F38E3F11F481E006C08DE08D83B2
:104E5000CE010E94C52680E0DF91CF911F910F9176
:104E6000FF900895CF93DF93EC018E818823D1F0DA
:104E70008FEF8EBD2F8138854FEF04C00DB407FE34
:104E8000FDCF4EBD2F5F3F4FC9010197815092402A
:104E9000A8F338872F830DB407FEFDCFCE010E9403
:104EA000C5261E82DF91CF910895DF92EF92FF9287
:104EB0000F931F93CF93DF93EC01D62E79018A01D4
:104EC0000E943227CE010E94BF26CE016CE271E023
:104ED0000E949D268D2D80648EBD0DB407FEFDCFF2
:104EE00028E130E0D801C701022E04C0B695A7958D
:104EF000979587950A94D2F78EBD0DB407FEFDCF26
:104F0000285030408FEF283F380761F7DD2011F43B
:104F100085E906C088E0D81611F487E801C08FEF54
:104F20008EBD0DB407FEFDCF90E02FEF2EBD0DB46A
:104F300007FEFDCF8EB587FF02C09150B9F78A8773
:104F4000DF91CF911F910F91FF90EF90DF90089527
:104F5000CF92DF92EF92FF920F931F93CF93DF9345
:104F6000EC017A018B01690141155105610571055B
:104F700011F482E137C08B85833039F029E0EE0CE3
:104F8000FF1C001F111F2A95D1F7CE0168E1A8016F
:104F900097010E945527882311F084E023C0CE0199
:104FA0006EEFA6010E94CB268823E9F0CE0168E5CA
:104FB00072E00E949D26882311F485E113C0CE0182
:104FC0006DE020E030E040E050E00E94552788236B
:104FD00041F48FEF8EBD0DB407FEFDCF8EB5882353
:104FE00079F084E18D83CE010E94C52680E0DF91B7
:104FF000CF911F910F91FF90EF90DF90CF90089588
:10500000CE010E94C52681E0F2CF8F929F92AF928F
:10501000BF92CF92DF92EF92FF920F931F93CF93A5
:10502000DF93EC015A016B0149010115110509F4E7
:105030007BC0C801820F931F8150924008F06FC05F
:105040008E81882371F088819981AA81BB8148175C
:1050500059076A077B0729F48F8198858816990676
:1050600018F5A882B982CA82DB828B85833039F039
:1050700069E0AA0CBB1CCC1CDD1C6A95D1F7CE01E3
:1050800061E1A60195010E945527882319F083E06C
:105090008D8345C0CE010E940527882309F43FC0B7
:1050A00018861F8281E08E838FEF8EBD8F81988559
:1050B0002FEF05C00DB407FEFDCF2EBD019688155C
:1050C0009905C0F398878F83D801119720E030E0CD
:1050D0009FEF0BC00DB407FEFDCF8EB5F701E20FB9
:1050E000F31F80839EBD2F5F3F4F2A173B0790F32E
:1050F0000DB407FEFDCF8EB5AE0DBF1D8C932F8175
:105100003885200F311F38872F838985882319F030
:105110002050324048F0CE010E94322705C0CE0117
:105120000E94C52680E001C081E0DF91CF911F91F0
:105130000F91FF90EF90DF90CF90BF90AF909F9036
:105140008F900895EF92FF920F931F93790120E0C3
:1051500030E000E012E00E9405281F910F91FF90BF
:10516000EF900895BF92CF92DF92EF92FF920F934C
:105170001F93CF93DF93EC01B62E1B8619861E82F8
:105180001D824C830E945B116B018C8161E00E9447
:105190002412CE010E94C52682E360E00E94241200
:1051A00083E361E00E94241284E361E00E94241200
:1051B00085E361E00E94241285E361E00E94D7123A
:1051C00083E58CBD8DB58E7F8DBD80E09FEF9EBD4C
:1051D0000DB407FEFDCF8F5F8A30C9F7CE010E9464
:1051E000BF2609C00E945B116C197D09615D774083
:1051F00010F081E05EC0CE0160E020E030E040E0F1
:1052000050E00E945527182F8A87813059F7CE0128
:1052100068E02AEA31E040E050E00E94552782FF32
:1052200002C01B8711C080E02FEF2EBD0DB407FE1A
:10523000FDCF9EB58F5F8430C1F79A879A3A11F0FF
:1052400082E037C082E08B878B85823021F0EE24AC
:10525000FF2487010FC0E12CF12C012DF0E41F2F5A
:1052600009C00E945B116C197D09615D774010F0E7
:1052700088E01FC0CE0167E320E030E040E050E06E
:105280000E945527CE0169E2A80197010E94552787
:105290008A87882331F78B85823031F5CE016AE326
:1052A00020E030E040E050E00E945527882339F0AC
:1052B00086E08D83CE010E94C52680E01CC08FEF62
:1052C0008EBD0DB407FEFDCF8EB5807C803C11F401
:1052D00083E08B8780E09FEF9EBD0DB407FEFDCF7E
:1052E0002EB58F5F8330C1F7CE010E94C526CE0157
:1052F0006B2D0E947826DF91CF911F910F91FF9027
:10530000EF90DF90CF90BF900895CF93DF93EC01A3
:10531000DB0180E090E020E2FD01E80FF91F20832F
:1053200001968B309105C1F757E040E021C02E3245
:1053300019F086EE97E007C05A3019F15AE048E0BC
:1053400017C03217F1F0FC01019634913323C9F7ED
:105350005417B8F02132A8F02F3798F4822F8156D5
:105360008A3108F42052FD01E40FF11D20834F5FC4
:1053700029912223E1F690E08C91803219F091E09E
:1053800001C090E0892FDF91CF9108956F927F92B5
:105390008F929F92AF92BF92CF92DF92EF92FF9245
:1053A0000F931F93CF93DF93EC017A018B012D8133
:1053B000222309F480C08B899C89AD89BE8984171A
:1053C0009507A607B70708F476C085C0E114F10475
:1053D0000105110549F41E821F82188619861A8656
:1053E0001B861C861D8665C02A853B854C855D8590
:1053F000EB8DFC8D858590E0099621503040404032
:10540000504039014A01082E04C09694879477943D
:1054100067940A94D2F72F5F3F4F4F4F5F4F089426
:10542000E108F108010911095701680104C0D69487
:10543000C794B794A7948A95D2F70894E11CF11CFD
:10544000011D111DA614B704C804D90428F02115A4
:1054500031054105510549F48F89988DA98DBA8D83
:105460008E839F83A887B98716C0A618B708C80877
:10547000D90811C04E815F81688579858B8D9C8D9F
:1054800094010E94A0330894A108B108C108D10872
:10549000882331F410C086E0882E912C8C0E9D1E3E
:1054A000A114B104C104D10429F7EA86FB860C8754
:1054B0001D8781E001C080E0DF91CF911F910F91A6
:1054C000FF90EF90DF90CF90BF90AF909F908F9024
:1054D0007F906F900895223009F078CFE6CFCF9378
:1054E000DF93EC01462F6E857F85888999890E941C
:1054F0008431882319F420E030E00AC08A89282FFB
:1055000030E095E0220F331F9A95E1F72253384F90
:10551000C901DF91CF9108950F931F93CF93DF932C
:105520008C01FC0185818823D9F1848187FF35C0F6
:10553000C80161E00E946F2AEC01009789F1F8012F
:105540008581823040F483899489A589B6898C8FBE
:105550009D8FAE8FBF8FF8018789908D9B8F8A8F2B
:105560008789908DA18DB28DCD01AA27BB279D8BF8
:105570008C8BE091CC07F091CD07309751F0BE01B4
:105580006A5E7F4FCE0148961995888D998D9B8BC9
:105590008A8BF80184818F7784830E94253101C032
:1055A00080E0DF91CF911F910F910895CF93DF930A
:1055B000EC010E948C2A882311F01D8281E0DF918A
:1055C000CF9108956F927F928F929F92AF92BF92E8
:1055D000CF92DF92EF92FF920F931F93DF93CF93BF
:1055E00000D00F92CDB7DEB77C015A016B01DC0110
:1055F00015968C911597813009F08FC014968C9177
:1056000081FF8BC09EC00097A105B10511F481E018
:1056100085C0F7016284738484849584C701B601D0
:10562000A5010E94C629882309F477C0D7015B969B
:105630008D919C915C97A114B104C104D10489F4AB
:1056400057964D915D916D917C915A970E941334BC
:10565000882309F462C0F701178A108E118E128E0A
:105660003DC0D70116964D915D916D917C91199732
:105670009E012F5F3F4F0E94A033882309F44DC045
:10568000D7015B96ED91FC915C9749815A816B81C2
:105690007C818789803129F088EF9FEFAFEFBFE0F1
:1056A00004C088EF9FEFA0E0B0E0481759076A07F1
:1056B0007B07A0F4CF010E941334882371F1F70116
:1056C0004681578160857185838D948D0FEF1FEF23
:1056D0002FEF3FE00E9404338823F9F0D70153965F
:1056E000AD92BD92CD92DC92569714968C91149700
:1056F000806814968C93C7010E948C2A882369F0D5
:10570000B601A5016A147B048C049D0410F4B40155
:10571000A301C7010E94C62901C080E00F900F902D
:105720000F900F90CF91DF911F910F91FF90EF900D
:10573000DF90CF90BF90AF909F908F907F906F90B1
:105740000895F70183899489A589B68984179507F7
:10575000A607B70708F057CFE0CF2F923F924F929E
:105760005F926F927F928F929F92AF92BF92CF92F1
:10577000DF92EF92FF920F931F93CF93DF93EC0191
:105780002A018D81882309F4C6C08C8180FFC3C0A3
:10579000D8C025014E185F084B0176E0272E312C2A
:1057A0002C0E3D1E3201B1C02A853B854C855D859E
:1057B0006FEFA62E61E0B62EA222B3228D81790171
:1057C0008A0199E016950795F794E7949A95D1F791
:1057D000EB8DFC8D823049F4428D538D648D758D37
:1057E0004E0D5F1D601F711F3FC0D480DA94DE2014
:1057F000A114B104D9F4DD20C9F421153105410506
:10580000510549F48F89988DA98DBA8D8E839F8318
:10581000A887B9870BC04E815F8168857985CF01E4
:1058200091010E94A033882309F475C0EB8DFC8D93
:105830004E815F816885798542505040604070405C
:10584000058404C0440F551F661F771F0A94D2F7C2
:1058500086859785A089B189480F591F6A1F7B1FCC
:105860004D0D511D611D711D80E092E08A199B094B
:1058700063018615970508F46C018C8186FD06C0CE
:1058800080E0C81682E0D80609F073C08091070452
:1058900090910804A0910904B0910A04481759078F
:1058A0006A077B0709F465C08091CE099091CF0902
:1058B0009501860174010E940528882361F18C0CF2
:1058C0009D1C12C095012253384FA9014C0D5D1D3E
:1058D000D401F90102C081918D93E417F507D9F73E
:1058E000E21BF30B8E0E9F1E960140E050E08A856E
:1058F0009B85AC85BD85820F931FA41FB51F8A872A
:105900009B87AC87BD876C187D086114710409F012
:105910004BCFA20102C04FEF5FEFCA01DF91CF91E1
:105920001F910F91FF90EF90DF90CF90BF90AF90BD
:105930009F908F907F906F905F904F903F902F90AF
:105940000895AB88BC88CD88DE88EA84FB840C850A
:105950001D859A0140E050E0D601C5018E199F09CE
:10596000A00BB10B82179307A407B50708F411CF5A
:1059700013CFCB01BA0140E00E948431882309F0A3
:10598000A1CFC9CFCF92DF92EF92FF920F931F93D7
:10599000DF93CF930F92CDB7DEB76C01FC01858109
:1059A000823070F0E284F38404851585C601BE015F
:1059B0006F5F7F4F41E050E00E94AD2B019769F08F
:1059C00020E030E0C9010F90CF91DF911F910F913E
:1059D000FF90EF90DF90CF900895F6018285938538
:1059E000A485B5854F96A11DB11D82879387A48795
:1059F000B587F5E016950795F794E794FA95D1F7F2
:105A00008E2D8F70282F30E0E5E0220F331FEA95AE
:105A1000E1F72253384FD6CF0F931F93CF93DF93E5
:105A2000EC018B018D81882309F041C0FB0187893E
:105A30008031B1F482E08D831F8A188E198E1A8E00
:105A4000808D918DA0E0B0E045E0880F991FAA1FDE
:105A5000BB1F4A95D1F78B8B9C8BAD8BBE8B15C032
:105A6000803229F583E08D83FB01428D538D648D57
:105A7000758D4F8B588F698F7A8F9E012D5E3F4FAA
:105A8000C8010E946C34882391F01C8F0B8F81E039
:105A90008C831E821F82188619861A861B861C8696
:105AA0001D861E861F86188A198A1A8A01C080E000
:105AB000DF91CF911F910F9108951F93CF93DF93A3
:105AC000EC01142FE62FF0E075E0EE0FFF1F7A9542
:105AD000E1F7E253F84F8385817121F0842F8274BE
